:100000000C945D000C9485000C9485000C94850084
:100010000C9485000C9485000C9485000C9485004C
:100020000C9485000C9485000C9485000C9485003C
:100030000C9485000C9485000C9485000C9485002C
:100040000C945E020C9485000C94CE020C94A802D1
:100050000C9485000C9485000C9485000C9485000C
:100060000C9485000C9485000000000024002700FB
:100070002A0000000000250028002B0004040404CE
:100080000404040402020202020203030303030342
:10009000010204081020408001020408102001021F
:1000A00004081020000000080002010000030407FB
:1000B0000000000000000000860511241FBECFEFE5
:1000C000D8E0DEBFCDBF11E0A0E0B1E0E2E3F0E1B7
:1000D00002C005900D92A635B107D9F722E0A6E53A
:1000E000B1E001C01D92A431B207E1F710E0CDE507
:1000F000D0E004C02197FE010E94D505CC35D10780
:10010000C9F70E9400030C9417080C940000E7EB59
:10011000F0E02491E3EAF0E09491EFE8F0E0E4917C
:10012000EE23C9F0222339F0233001F1A8F4213065
:1001300019F1223029F1F0E0EE0FFF1FEE58FF4FCA
:10014000A591B4912FB7F894EC91811126C09095A8
:100150009E239C932FBF08952730A9F02830C9F023
:10016000243049F7209180002F7D03C0209180002A
:100170002F7720938000DFCF24B52F7724BDDBCFEE
:1001800024B52F7DFBCF2091B0002F772093B000B6
:10019000D2CF2091B0002F7DF9CF9E2BDACFCF9315
:1001A000DF9390E0FC01E057FF4F249184589F4F6C
:1001B000FC0184918823D1F090E0880F991FFC0105
:1001C000E859FF4FA591B491FC01EE58FF4FC5913E
:1001D000D491623071F49FB7F8943C91822F80954E
:1001E00083238C93E8812E2B28839FBFDF91CF91AF
:1001F00008958FB7F894EC912E2B2C938FBFF6CFE8
:10020000AF92BF92CF92DF92EF92FF920F931F9324
:10021000CF93DF936C017B018B01040F151FEB0162
:100220005E01AE18BF08C017D10759F06991D60119
:10023000ED91FC910190F081E02DC6010995892B8B
:1002400079F7C501DF91CF911F910F91FF90EF904A
:10025000DF90CF90BF90AF900895FC01538D448DF7
:10026000252F30E0842F90E0821B930B541710F061
:10027000CF96089501970895FC01918D828D98176E
:1002800061F0A28DAE0FBF2FB11D5D968C91928D46
:100290009F5F9F73928F90E008958FEF9FEF089577
:1002A000FC01918D828D981731F0828DE80FF11D40
:1002B000858D90E008958FEF9FEF0895FC01918D5B
:1002C000228D892F90E0805C9F4F821B91098F7354
:1002D0009927089587E791E00E945E0121E0892B2C
:1002E00009F420E0822F089580E090E0892B29F026
:1002F0000E946A0181110C9400000895FC01A48DF4
:10030000A80FB92FB11DA35ABF4F2C91848D90E037
:1003100001968F739927848FA689B7892C93A0891A
:10032000B1898C91837080648C93938D848D9813A4
:1003300006C00288F389E02D80818F7D8083089537
:10034000EF92FF920F931F93CF93DF93EC0181E025
:10035000888F9B8D8C8D98131AC0E889F9898081CC
:1003600085FF15C09FB7F894EE89FF896083E889FF
:10037000F98980818370806480839FBF81E090E0F1
:10038000DF91CF911F910F91FF90EF900895F62E7E
:100390000B8D10E00F5F1F4F0F731127E02E8C8D18
:1003A0008E110CC00FB607FCFACFE889F98980815D
:1003B00085FFF5CFCE010E947E01F1CFEB8DEC0FD2
:1003C000FD2FF11DE35AFF4FF0829FB7F8940B8F7A
:1003D000EA89FB8980818062CFCFCF93DF93EC01E4
:1003E000888D8823B9F0AA89BB89E889F9898C911D
:1003F00085FD03C0808186FD0DC00FB607FCF7CFD9
:100400008C9185FFF2CF808185FFEDCFCE010E94D8
:100410007E01E9CFDF91CF910895FC01019000208A
:10042000E9F73197AF01481B590BBC0187E791E011
:100430000C9400018F929F92AF92BF920F931F93E3
:10044000CF93DF93CDB7DEB7A1970FB6F894DEBF99
:100450000FBECDBF19A2423008F44AE08E010F5DF5
:100460001F4F842E912CB12CA12CA50194010E9428
:10047000B305E62FB901CA01EA30F4F4E05DD80112
:10048000EE938D01232B242B252B79F790E080E030
:10049000109719F0CD010E940D02A1960FB6F894A5
:1004A000DEBF0FBECDBFDF91CF911F910F91BF90E7
:1004B000AF909F908F900895E95CE1CF1F920F92CB
:1004C0000FB60F9211242F933F938F939F93AF9367
:1004D000BF938091730190917401A0917501B091C7
:1004E00076013091720123E0230F2D3758F50196E4
:1004F000A11DB11D2093720180937301909374012B
:10050000A0937501B093760180916E0190916F0177
:10051000A0917001B09171010196A11DB11D809350
:100520006E0190936F01A0937001B0937101BF9120
:10053000AF919F918F913F912F910F900FBE0F9090
:100540001F90189526E8230F0296A11DB11DD2CF4A
:100550001F920F920FB60F9211242F933F934F9338
:100560005F936F937F938F939F93AF93BF93EF931B
:10057000FF9387E791E00E947E01FF91EF91BF9189
:10058000AF919F918F917F916F915F914F913F912B
:100590002F910F900FBE0F901F9018951F920F92E2
:1005A0000FB60F9211242F938F939F93EF93FF9386
:1005B000E0918701F09188018081E0918D01F091B7
:1005C0008E0182FD1BC09081809190018F5F8F739F
:1005D00020919101821741F0E0919001F0E0E958FB
:1005E000FE4F958F80939001FF91EF919F918F9196
:1005F0002F910F900FBE0F901F9018958081F4CF10
:10060000789484B5826084BD84B5816084BD85B5ED
:10061000826085BD85B5816085BD80916E008160F9
:1006200080936E001092810080918100826080939F
:1006300081008091810081608093810080918000A1
:100640008160809380008091B10084608093B100CC
:100650008091B00081608093B00080917A008460C6
:1006600080937A0080917A00826080937A008091F2
:100670007A00816080937A0080917A00806880930C
:100680007A001092C10061E083E10E94CF0081E016
:100690000E94870062E088E00E94CF0062E089E06B
:1006A0000E94CF0062E08AE00E94CF0062E08BE00F
:1006B0000E94CF0062E08CE00E94CF0062E08DE0FB
:1006C0000E94CF008FEF8AB91BB8E0918701F091AB
:1006D000880182E08083E0918301F091840110829F
:1006E000E0918501F0918601108210928F01E091D6
:1006F0008B01F0918C0186E08083E0918901F0917B
:100700008A01808180618083E0918901F0918A0172
:10071000808188608083E0918901F0918A018081E5
:1007200080688083E0918901F0918A0180818F7DCA
:10073000808336E3432EC1E0D0E012E301E449E3D5
:10074000742E93E3692E23E2522E80916C019091D6
:100750006D01009741F0019709F400C110926D01FD
:1007600010926C01D6C02FB7F894809173019091CC
:100770007401A0917501B09176012FBF80935D0146
:1007800090935E01A0935F01B093600110925C01B1
:1007900093E422E434E441E358E365E370E3A7E340
:1007A000B4E38AE2F82EE0915C01E43008F06AC01C
:1007B000F0E0ED5EFE4F80818BB98BB1E3B18E2707
:1007C000883809F43EC0F8F48834C1F150F482341A
:1007D00009F443C08434C1F1813431F5F0925B01F6
:1007E00008C08238E9F1843891F18138E9F47093D6
:1007F0005B0180915B01811145C080915C018F5F3D
:1008000080935C01D0CF883DA1F148F4823DB9F1DD
:10081000843D91F1813D41F430935B01EACF823E0A
:1008200011F128F4813E11F110925B01E2CF843E78
:1008300089F0883EC9F760925B01DBCF40935B0192
:10084000D8CF10935B01D5CFB0935B01D2CF60932B
:100850005B01CFCF40925B01CCCFA0935B01C9CFAE
:1008600050935B01C6CF70925B01C3CF50925B0186
:10087000C0CF00935B01BDCF20935B01BACF9093B3
:100880005B01B7CF80915A0190915B01882309F4F5
:100890004DC091114BC040915D0150915E0160913E
:1008A0005F0170916001C0905601D0905701E090B7
:1008B0005801F09059014A015B018C189D08AE085F
:1008C000BF087501640125E6C216D104E104F104F4
:1008D00090F14093560150935701609358017093E3
:1008E000590180935B0110925A0180936B0187E15B
:1008F00091E00E940D0260916B0187E791E00E94F8
:10090000A00186E291E00E940D02D0936D01C09398
:100910006C0180E090E0892B09F417CF0E946A01F6
:10092000882309F40ECF0E9400000BCF891303C067
:1009300010926B01EECF90935A0180915D019091DE
:100940005E01A0915F01B091600180935601909388
:100950005701A0935801B0935901EACF809100014B
:1009600091E08927809300010E9487002FB7F894B7
:100970008091730190917401A0917501B0917601FD
:100980002FBF8093670190936801A0936901B09392
:100990006A012091630130916401821B930B909353
:1009A00062018093610189E291E00E940D026091F1
:1009B00061017091620190E080E00E94EE0620E00B
:1009C00030E04AE754E40E944D066B017C01AC0123
:1009D0009B010E9412088823E9F08AE491E00E94BA
:1009E0000D0286E291E00E940D0286E291E00E94F3
:1009F0000D028091670190916801A0916901B09109
:100A00006A018093630190936401A0936501B093A0
:100A10006601A4CE2FEF3FEF4FE75FE7C701B601B6
:100A20000E94120881110DC02FEF3FEF4FE75FE7E3
:100A3000C701B6010E94480618161CF48EE491E026
:100A4000CECF2FEF3FEF4FE75FE4C701B6010E9423
:100A5000A00718161CF482E591E0C1CF2FEF3FEFFD
:100A60004FE75FECC701B6010E94480687FDF3CF50
:100A70002AE037ED43EA5BE3C701B6010E94DC05DB
:100A80004B015C010E94BF066B017C010E94EE06D7
:100A90009B01AC01C501B4010E94DB054B015C0167
:100AA0004AE0C701B6010E941A026EE287E791E0B0
:100AB0000E94A00120E030E040E251E4C501B40111
:100AC0000E94A5074B015C010E94BF066B01F12C3F
:100AD000E12C4AE0C701B6010E941A02C701B60123
:100AE0000E94EE069B01AC01C501B4010E94DB052A
:100AF00020E030E040E251E40E94A5070E94BF06DA
:100B000090E080E04AE00E941A026BCFE7E7F1E054
:100B10001382128288EE93E0A0E0B0E08483958394
:100B2000A683B78385E091E09183808385EC90E094
:100B30009587848784EC90E09787868780EC90E0A7
:100B4000918B808B81EC90E0938B828B82EC90E098
:100B5000958B848B86EC90E0978B868B118E128E12
:100B6000138E148E0895A1E21A2EAA1BBB1BFD0141
:100B70000DC0AA1FBB1FEE1FFF1FA217B307E4077C
:100B8000F50720F0A21BB30BE40BF50B661F771FD4
:100B9000881F991F1A9469F76095709580959095B4
:100BA0009B01AC01BD01CF010895EE0FFF1F059021
:100BB000F491E02D09945058BB27AA270E94F30511
:100BC0000C9466070E94580738F00E945F0720F0D7
:100BD00039F49F3F19F426F40C9455070EF4E09570
:100BE000E7FB0C944F07E92F0E94770758F3BA17D9
:100BF000620773078407950720F079F4A6F50C9433
:100C000099070EF4E0950B2EBA2FA02D0B01B90118
:100C100090010C01CA01A0011124FF27591B99F072
:100C2000593F50F4503E68F11A16F040A22F232F7E
:100C3000342F4427585FF3CF469537952795A795CE
:100C4000F0405395C9F77EF41F16BA0B620B730B75
:100C5000840BBAF09150A1F0FF0FBB1F661F771FE6
:100C6000881FC2F70EC0BA0F621F731F841F48F49B
:100C7000879577956795B795F7959E3F08F0B0CF24
:100C80009395880F08F09927EE0F9795879508950B
:100C90000E942B0708F481E008950E9461060C94DD
:100CA00066070E945F0758F00E94580740F029F439
:100CB0005F3F29F00C944F0751110C949A070C9444
:100CC00055070E94770768F39923B1F3552391F3F1
:100CD000951B550BBB27AA2762177307840738F0AB
:100CE0009F5F5F4F220F331F441FAA1FA9F335D008
:100CF0000E2E3AF0E0E832D091505040E695001CBC
:100D0000CAF72BD0FE2F29D0660F771F881FBB1F75
:100D1000261737074807AB07B0E809F0BB0B802D53
:100D2000BF01FF2793585F4F3AF09E3F510578F07F
:100D30000C944F070C949A075F3FE4F3983ED4F36A
:100D4000869577956795B795F7959F5FC9F7880F53
:100D5000911D9695879597F90895E1E0660F771FA5
:100D6000881FBB1F621773078407BA0720F0621B36
:100D7000730B840BBA0BEE1F88F7E09508950E9461
:100D80007F0788F09F5798F0B92F9927B751B0F097
:100D9000E1F0660F771F881F991F1AF0BA95C9F7FF
:100DA00014C0B13091F00E949907B1E008950C94FD
:100DB0009907672F782F8827B85F39F0B93FCCF3B0
:100DC000869577956795B395D9F73EF4909580957C
:100DD000709561957F4F8F4F9F4F0895E89409C09C
:100DE00097FB3EF490958095709561957F4F8F4F5E
:100DF0009F4F9923A9F0F92F96E9BB279395F69574
:100E0000879577956795B795F111F8CFFAF4BB0FF1
:100E100011F460FF1BC06F5F7F4F8F4F9F4F16C055
:100E2000882311F096E911C0772321F09EE8872FDF
:100E3000762F05C0662371F096E8862F70E060E09B
:100E40002AF09A95660F771F881FDAF7880F969514
:100E5000879597F90895990F0008550FAA0BE0E8B8
:100E6000FEEF16161706E807F907C0F0121613066C
:100E7000E407F50798F0621B730B840B950B39F4AC
:100E80000A2661F0232B242B252B21F408950A2612
:100E900009F4A140A6958FEF811D811D089597F952
:100EA0009F6780E870E060E008959FEF80EC089510
:100EB00000240A9416161706180609060895002439
:100EC0000A9412161306140605060895092E0394B3
:100ED000000C11F4882352F0BB0F40F4BF2B11F427
:100EE00060FF04C06F5F7F4F8F4F9F4F089557FD86
:100EF0009058440F551F59F05F3F71F04795880F88
:100F000097FB991F61F09F3F79F08795089512161E
:100F100013061406551FF2CF4695F1DF08C01616CA
:100F200017061806991FF1CF86957105610508947B
:100F30000895E894BB2766277727CB0197F9089592
:100F40000E942B0708F48FEF08950E94B8070C94B5
:100F500066070E94580738F00E945F0720F095232B
:100F600011F00C944F070C94550711240C949A0718
:100F70000E94770770F3959FC1F3950F50E0551FBE
:100F8000629FF001729FBB27F00DB11D639FAA27DE
:100F9000F00DB11DAA1F649F6627B00DA11D661F2D
:100FA000829F2227B00DA11D621F739FB00DA11D4E
:100FB000621F839FA00D611D221F749F3327A00D08
:100FC000611D231F849F600D211D822F762F6A2FA4
:100FD00011249F5750409AF0F1F088234AF0EE0F09
:100FE000FF1FBB1F661F771F881F91505040A9F736
:100FF0009E3F510580F00C944F070C949A075F3F79
:10100000E4F3983ED4F3869577956795B795F79571
:10101000E7959F5FC1F7FE2B880F911D96958795E9
:1010200097F908950E942B07880B990B0895F8945F
:02103000FFCFF0
:101032000100000000A00100012D01ED015E013C54
:101042000150017FBFDFEF4B6579205072657373EA
:101052006564203A20000D0A005365636F6E647365
:1010620020496E204C45442050726576696F757335
:10107200205374617465203A20006E616E00696EBF
:0610820066006F766600B7
:00000001FF
